:020000040800F2
:10000000E0670020CD6B0008C5410008C74100082B
:10001000CB410008CF410008D34100080000000098
:100020000000000000000000000000009D0100082A
:10003000D741000800000000F9010008F16B00083A
:10004000E76B0008E76B0008E76B0008E76B000848
:10005000E76B0008E76B0008E76B0008E76B000838
:10006000E76B0008E76B0008E76B0008E76B000828
:10007000E76B0008E76B0008E76B0008E76B000818
:10008000E76B0008E76B0008E76B0008E76B000808
:10009000E5780008E76B0008E76B0008010201083B
:1000A000E76B0008E76B0008E76B0008E76B0008E8
:1000B000F5770008E76B0008E76B0008E76B0008BE
:1000C000E76B0008E76B0008E76B0008E76B0008C8
:1000D000E76B0008E76B0008E76B0008C1720008D7
:1000E000E76B0008E76B0008E76B0008E76B0008A8
:1000F000E76B0008E76B0008E76B0008E76B000898
:10010000E76B0008E76B0008E76B0008E76B000887
:10011000116F0008E76B0008E76B0008E76B000849
:10012000E76B0008E76B0008E76B0008E76B000867
:10013000E76B0008E76B0008E76B0008E76B000857
:10014000FF790008E76B0008E76B0008E76B000821
:10015000E76B0008E76B0008E76B0008D376000840
:10016000E76B0008E76B0008E76B0008E76B000827
:10017000E76B0008E76B0008E76B0008E76B000817
:10018000E76B0008E76B0008DFF80CD010F01AFEF0
:10019000004800475D020008E06700202C4B19680A
:1001A0000868B0E8F04F80F30988BFF36F8F4FF015
:1001B000000080F3118870470000000008480068C4
:1001C000006880F308884FF0000080F3148862B65E
:1001D00061B6BFF34F8FBFF36F8F00DF00BF00BF6B
:1001E00008ED00E0DFF80C00016841F470010160E7
:1001F000704700BF88ED00E0EFF30980BFF36F8F19
:10020000134B1A681EF0100F08BF20ED108A20E96A
:10021000F04F106009B44FF0500080F31188BFF325
:100220004F8FBFF36F8F09F0B0F84FF0000080F3ED
:10023000118809BC19680868B0E8F04F1EF0100F6B
:1002400008BFB0EC108A80F30988BFF36F8F704746
:10025000F8000020EFF305807047000010B54FF460
:10026000407003F03FFFA82006F0CAFC06F044FFF0
:1002700006F0CCFE07F0CCFA07F052FB06F09EFF2A
:1002800007F0D2F807F052F900F064FE02F02BFB01
:10029000084802F013FB084800F098FE06F01EFD27
:1002A000064810F0FBFD00F037F809F0EAF90020ED
:1002B00010BD000030070020A804002068230108BA
:1002C0001CB504460AF0A1FE4E480B2100234FF452
:1002D0008072CDE900104CA14E4808F0AEFC4E48AB
:1002E0000A2100234FF48072CDE900104BA14E4843
:1002F00008F0A3FC4D48092100234FF48072CDE99A
:1003000000104BA14E4808F098FC4E48006808F0D9
:10031000E2FC0AF09DFE1CBD1CB503220021012059
:1003200007F031FC4849086003220021012007F052
:100330002AFC464908604348012100238022CDE978
:10034000001043A1AFF2870008F077FC1CBD24E049
:1003500042480068401C414908600846006805287A
:1003600017D13FA010F09AFD00BF502080F31188F4
:10037000BFF34F8FBFF36F8F00BF41F2883006F09D
:100380007EFC3DA010F08AFD002080F3118800BFA4
:1003900000BF4FF47A7008F0CAFED9E730B589B0D3
:1003A00005463BA010F07AFD48A009F050FA04463B
:1003B000052301226946204609F098FA47A00199D1
:1003C00010F06CFD4CA0029910F068FD9DF80C1027
:1003D00050A010F063FD56A0049910F05FFD5BA0E3
:1003E000059910F05BFD60A0079910F057FDBDF86E
:1003F000201065A010F052FD6AA010F04FFD09B06A
:1004000030BD0000180000204761735F7461736B9A
:1004100000000000F13E0008140000204D6F746FD2
:10042000725F7461736B0000932F0008100000204E
:10043000436861737369735F7461736B00000000DC
:10044000F10E000800000020280000202C000020F1
:1004500073746172745F7461736B0000300000200C
:10046000B9D8B1D5D6D0B6CF2E2E2E2E2E2E2E2EDA
:100470002E2E2E2E2E0D0A00B4F2BFAAD6D0B6CF45
:100480002E2E2E2E2E2E2E2E2E2E2E2E2E0D0A00FF
:100490002F2A2A2A2A2A2A2A2A2A2A2A2A2020BA3B
:1004A000AFCAFD765461736B476574496E666F28F9
:1004B00029B5C4CAB9D3C320202A2A2A2A2A2A2A1B
:1004C0002A2A2A2A2A2A2A2F0D0A0000766C353376
:1004D0006C30785F7461736B00000000C8CECEF1A1
:1004E000C3FB3A2020202020202020202020202074
:1004F00020202025730D0A00C8CECEF1B1E0BAC588
:100500003A202020202020202020202020202025CC
:10051000640D0A00C8CECEF1D7B3CCAC3A2020206F
:10052000202020202020202020202025640D0A00CB
:10053000C8CECEF1B5B1C7B0D3C5CFC8BCB63A208E
:100540002020202020202025640D0A00C8CECEF1D6
:10055000BBF9D3C5CFC8BCB63A202020202020202C
:1005600020202025640D0A00C8CECEF1B6D1D5BB1F
:10057000BBF9B5D8D6B73A2020202020202020254E
:1005800023780D0A00000000C8CECEF1B6D1D5BB4D
:10059000C0FACAB7CAA3D3E0D7EED0A1D6B53A25E0
:1005A000640D0A002F2A2A2A2A2A2A2A2A2A2A2AD3
:1005B0002A2A2A2A2A2A2A2A2A2A2A2A2A2A2ABD08
:1005C000E1CAF82A2A2A2A2A2A2A2A2A2A2A2A2A66
:1005D0002A2A2A2A2A2A2A2A2A2A2A2A2A2A2F0D93
:1005E0000A000000F0B585B007460D4600244FF420
:1005F00000700090019000208DF808008DF809002F
:100600008DF80A5000BF05E0395D0DF10B00015572
:10061000601C84B2AC42F7DB6946FD4805F084F803
:100620000646002401E0601C84B23146F84805F01B
:1006300013F918B940F6FF708442F4DB40F6FF70FE
:10064000844202DB012005B0F0BD0020FBE7F0B5DD
:1006500085B007460C4615461E464FF400700090C4
:10066000380A8DF80B00F9B28DF80C10210A8DF8BC
:100670000D10E1B28DF80E10290A8DF80F10E9B2B5
:100680008DF81010310A8DF81110F1B28DF812109A
:10069000002001908DF808008DF8090008208DF8E1
:1006A0000A006946DA4805F03FF805B0F0BDF0B53C
:1006B00085B007460C4615461E4640F2FF100090D6
:1006C000380A8DF80B00F9B28DF80C10210A8DF85C
:1006D0000D10E1B28DF80E10290A8DF80F10E9B255
:1006E0008DF81010310A8DF81110F1B28DF812103A
:1006F000002001908DF808008DF8090008208DF881
:100700000A006946C24805F00FF805B0F0BDF0B523
:1007100085B007460C4615461E4640F2FF10009075
:10072000380A8DF80B00F9B28DF80C10210A8DF8FB
:100730000D10E1B28DF80E10290A8DF80F10E9B2F4
:100740008DF81010310A8DF81110F1B28DF81210D9
:10075000002001908DF808008DF8090008208DF820
:100760000A006946AA4804F0DFFF05B0F0BD10B5E5
:1007700004462068B0F5017F7CD007DCA0F20120A0
:1007800070B101282ED0022871D14DE0A0F20520D1
:1007900000286DD001286CD0B0F5FE7FF4D1CFE0F9
:1007A000207BE17A40EA012000B29A490860A17BEF
:1007B000607B41EA002000B296498860217CE07BA2
:1007C00041EA002000B29349C860A17C607C41EA04
:1007D000002000B200EE100AB8EEC00A8D4880ED8D
:1007E000040AB3E0207BE17A40EA012000B28949A3
:1007F0004861A17B607B41EA002001B28548C1616C
:10080000217CE07B41EA002001B282480162A17CA8
:10081000607C41EA002000B200EE100AB8EEC00A87
:100820007C4880ED090A91E0207BE17A40EA0120D2
:1008300000B278498862A17B607B41EA002001B266
:1008400074480163217CE07B41EA002001B27148D9
:100850004163A17C607C41EA002000B200EE100AF6
:10086000B8EEC00A6B4880ED0E0A6FE002E06CE063
:1008700022E043E0207BE17A40EA012000B26549B2
:10088000C863A17B607B41EA002001B261484164FA
:10089000217CE07B41EA002001B25E488164A17CBA
:1008A000607C41EA002000B200EE100AB8EEC00AF7
:1008B000584880ED130A49E0207BE17A40EA0120A4
:1008C00000B254490865A17B607B41EA002001B277
:1008D00050488165217CE07B41EA002001B24D480F
:1008E000C165A17C607C41EA002000B200EE100AE4
:1008F000B8EEC00A474880ED180A27E0207BE17A6D
:1009000040EA012000B243494866A17B607B41EA8E
:10091000002001B23F48C166217CE07B41EA002013
:1009200001B23C480167A17C607C41EA002000B232
:1009300000EE100AB8EEC00A364880ED1D0A05E048
:100940003549364801F0FEFF00E000BF00BF10BD92
:10095000F0B585B007460C4615461E4640F22510F8
:100960000090380A8DF80B00F9B28DF80C10210AAE
:100970008DF80D10E1B28DF80E10290A8DF80F10C8
:10098000E9B28DF81010310A8DF81110F1B28DF81E
:100990001210002001908DF808008DF80900082041
:1009A0008DF80A0069461E4804F0BEFE05B0F0BD91
:1009B000F0B585B007460C4615461E464FF400704C
:1009C0000090380A8DF80B00F9B28DF80C10210A4E
:1009D0008DF80D10E1B28DF80E10290A8DF80F1068
:1009E000E9B28DF81010310A8DF81110F1B28DF8BE
:1009F0001210002001908DF808008DF809000820E1
:100A00008DF80A006946064804F08EFE05B0F0BD78
:100A1000006400402C090020140E00203007002044
:100A200000680040F0B585B007460C4615461E46E6
:100A300040F2FF100090380A8DF80B00F9B28DF8E3
:100A40000C10210A8DF80D10E1B28DF80E10290A54
:100A50008DF80F10E9B28DF81010310A8DF81110D1
:100A6000F1B28DF81210002001908DF808008DF879
:100A7000090008208DF80A006946AD4804F054FECC
:100A800005B0F0BD10B504462068B0F5017F7CD0FC
:100A900007DCA0F2012070B101282ED0022871D10C
:100AA0004DE0A0F2052000286DD001286CD0B0F5F3
:100AB000FE7FF4D1CFE0207BE17A40EA012000B252
:100AC0009C490860A17B607B41EA002000B2994903
:100AD0008860217CE07B41EA002000B29549C86033
:100AE000A17C607C41EA002000B200EE100AB8EE62
:100AF000C00A904880ED040AB3E0207BE17A40EA26
:100B0000012000B28B494861A17B607B41EA002053
:100B100001B28848C161217CE07B41EA002001B23A
:100B200084480162A17C607C41EA002000B200EEB2
:100B3000100AB8EEC00A7F4880ED090A91E0207BD8
:100B4000E17A40EA012000B27A498862A17B607BA9
:100B500041EA002001B277480163217CE07B41EA51
:100B6000002001B273484163A17C607C41EA00200F
:100B700000B200EE100AB8EEC00A6E4880ED0E0A10
:100B80006FE002E06CE022E043E0207BE17A40EAA3
:100B9000012000B26749C863A17B607B41EA002065
:100BA00001B264484164217CE07B41EA002001B24B
:100BB00060488164A17C607C41EA002000B200EEC4
:100BC000100AB8EEC00A5B4880ED130A49E0207BAA
:100BD000E17A40EA012000B256490865A17B607BBA
:100BE00041EA002001B253488165217CE07B41EA63
:100BF000002001B24F48C165A17C607C41EA002021
:100C000000B200EE100AB8EEC00A4A4880ED180A99
:100C100027E0207BE17A40EA012000B2454948669E
:100C2000A17B607B41EA002001B24248C166217C81
:100C3000E07B41EA002001B23E480167A17C607C74
:100C400041EA002000B200EE100AB8EEC00A3948AE
:100C500080ED1D0A05E03849384801F073FE00E0D8
:100C600000BF00BF10BD0168A1F2251151B1B1F55F
:100C70007F7F0FD1017BC27A41EA022109B2304A5B
:100C8000118008E0017BC27A41EA022109B22C4AB4
:100C9000118000E000BF00BF7047F0B585B0074687
:100CA0000C4615461E4640F225100090380A8DF875
:100CB0000B00F9B28DF80C10210A8DF80D10E1B27D
:100CC0008DF80E10290A8DF80F10E9B28DF810106A
:100CD000310A8DF81110F1B28DF812100020019038
:100CE0008DF808008DF8090008208DF80A00694683
:100CF0000F4804F019FD05B0F0BD0168A1F22511FF
:100D000051B1B1F57F7F0FD1017BC27A41EA022157
:100D100009B20B4A118008E0017BC27A41EA022144
:100D200009B2074A118000E000BF00BF7047000011
:100D300000680040CC0900203C0E00203007002055
:100D40009804002030EE802A01EE612A80ED062A08
:100D500030EEC02A11EE612A80ED072A30EEC02A5B
:100D600001EE612A80ED082A30EE802A11EE612A18
:100D700080ED092A704710B52DED048BB0EE408A46
:100D8000F0EE608AB0EE419AF0EE619AF0EE691AE8
:100D9000B0EE491AF0EE680AB0EE480AFE48FFF7D6
:100DA000D1FFFD48D0ED060AB0EE600A0F221146D1
:100DB000303002F0B2FEF848D0ED070AB0EE600A1B
:100DC0000F221146343002F0A8FEF348D0ED080A95
:100DD000B0EE600A0F221146383002F09EFEEE4857
:100DE000D0ED090AB0EE600A0F2211463C3002F045
:100DF00094FEE94890ED0C1AF0EE410AE74890EDB8
:100E0000021AB8EEC11AB0EE410A4FF4804243F222
:100E1000C8219FEDE31AE048483002F0E8FCDE48C4
:100E200090ED0D1AF0EE410ADC4890ED071AB8EE8D
:100E3000C11AB0EE410A4FF4804243F2C8219FED3F
:100E4000D81AD548A83002F0D2FCD34890ED0E1A3B
:100E5000F0EE410AD14890ED0C1AB8EEC11AB0EE8E
:100E6000410A4FF4804243F2C8219FEDCD1ACD488C
:100E700002F0BDFCC84890ED0F1AF0EE410AC748D9
:100E800090ED111AB8EEC11AB0EE410A4FF480424B
:100E900043F2C8219FEDC21AC248603002F0A7FC9D
:100EA000BD4C94ED610ABDEEC00A10EE104A23B2AB
:100EB000B94C94ED490ABDEEC00A10EE104A22B2B8
:100EC000B54C94ED310ABDEEC00A10EE104A21B2C5
:100ED000B14C94ED190ABDEEC00A10EE104A20B2D2
:100EE000FFF7B5FB0020B0490870BDEC048B10BDC6
:100EF00008B500BF08F00DFC00902AE0AB48B0F93F
:100F00000400404201EE900AF8EEE11AB0EE611AD8
:100F1000A648B0F9020000EB400001EE900AF8EE9E
:100F2000E11AF0EE610AA148B0F9000000EB4000C0
:100F300001EE900AF8EEE11AB0EE610AF0EE081A3E
:100F4000FFF719FF0020984908700121684608F052
:100F500093F8D3E710B5B2EE001ADFED950AB2EEC2
:100F6000040A8D48483002F089F9B2EE001ADFED2C
:100F7000900AB2EE040A8B48603802F07FF9B2EEB4
:100F8000001ADFED8B0AB2EE040A864802F076F909
:100F9000B2EE001ADFED860AB2EE040A8148603034
:100FA00002F06CF9B2EE001ADFED810AB2EE040A2B
:100FB0007C48C03002F062F9B2EE001ADFED7C0A24
:100FC000B2EE040A7B4802F059F910BD9FED7A0A8F
:100FD00080ED000A9FED780A80ED030A9FED760A06
:100FE00080ED010A9FED740A80ED040A9FED720AFC
:100FF00080ED020A9FED700A80ED050A9FED6E0AF2
:1010000080ED060A9FED6C0A80ED070A9FED6A0AE3
:1010100080ED080A9FED680A80ED090A9FED660AD7
:1010200080ED0C0A9FED640A80ED0D0A9FED620AC7
:1010300080ED0E0A9FED600A80ED0F0A704770B5D3
:1010400004460D46DFED561A9FED5B1A5B48D0ED66
:10105000000A5B4890ED000A4F48FFF773FE4E48C8
:1010600090ED061AF0EE410A4C4890ED021AB8EEE7
:10107000C11AB0EE410A4FF4804243F2C8219FEDFD
:10108000481A4548483002F0B2FB434890ED071A31
:10109000F0EE410A414890ED071AB8EEC11AB0EEE1
:1010A000410A4FF4804243F2C8219FED3D1A3D486A
:1010B000603802F09CFB384890ED081AF0EE410AC7
:1010C000364890ED0C1AB8EEC11AB0EE410A4FF452
:1010D000804243F2C8219FED321A324802F087FB6A
:1010E0002D4890ED091AF0EE410A2C4890ED111AA6
:1010F000B8EEC11AB0EE410A4FF4804243F2C82163
:101100009FED271A2748603002F071FB224E96EDC2
:10111000610ABDEEC00A10EE106A33B21E4E96EDA3
:10112000490ABDEEC00A10EE106A32B21A4E96EDB0
:10113000310ABDEEC00A10EE106A31B2164E96EDBD
:10114000190ABDEEC00A10EE106A30B2FFF77FFA3E
:101150000020154908701B48008800286CD1012D1B
:1011600039D19FED150A164880ED000A0A220621A2
:101170001248634200EE103AB8EEC00A02F0CDFC0D
:101180000E48D0ED000A604200EE100AB8EEC00A28
:10119000F4EE400A18E00000A80400202C0900200A
:1011A0000000C842B005002034000020A00D00203F
:1011B000CDCC8C3FD0060020000000004400002071
:1011C0004000002048000020F1EE10FA34D1012048
:1011D000FE49088030E0022D1DD11FED090AFC48B0
:1011E00080ED000A0A220621FA4800EE104AB8EE05
:1011F000C00A02F092FCF748D0ED000A00EE104A57
:10120000B8EEC00AF4EE400AF1EE10FA14D1012053
:10121000EE49088010E00020EC4908800A220621EF
:10122000EB481FED1B0A02F078FC0A220621E94870
:101230001FED1F0A02F071FCE4480088012868D104
:10124000012D29D1E24890ED000AF0EE000A30EEBF
:10125000200A80ED000ADF4890ED000AF0EE000A57
:1012600030EE200A80ED000AD948D0ED000A00EEE9
:10127000104AB8EEC00AF4EE400AF1EE10FA48D176
:10128000D44890ED000AB5EEC00AF1EE10FA40D154
:101290000220CE4908803CE0022D29D1CC4890EDB7
:1012A000000AF0EE000A30EE200A80ED000AC9487C
:1012B00090ED000AF0EE000A30EE600A80ED000AC0
:1012C000C348D0ED000A00EE104AB8EEC00AF4EEB2
:1012D000400AF1EE10FA1CD1BE4890ED000AB5EEBE
:1012E000C00AF1EE10FA14D10220B849088010E0CB
:1012F0000020B64908800A220621B5481FED520A8F
:1013000002F00BFC0A220621B2481FED550A02F03A
:1013100004FCAE480088022869D1012D29D1AC48CF
:1013200090ED000AF0EE000A30EE600A80ED000A4F
:10133000A84890ED000AF0EE000A30EE200A80ED99
:10134000000AA34890ED000AB5EEC00AF1EE10FACB
:101350004DD1A048D0ED000A00EE104AB8EEC00A08
:10136000F4EE400AF1EE10FA41D1032097490880CB
:101370003DE0022D2AD1964890ED000AF0EE000AD9
:1013800030EE600A80ED000A924890ED000AF0EE1F
:10139000000A30EE600A80ED000A8D4890ED000AE8
:1013A000B5EEC00AF1EE10FA21D18A48D0ED000A5C
:1013B000604200EE100AB8EEC00AF4EE400AF1EE08
:1013C00010FA14D103208149088010E000207F49E1
:1013D00008800A2206217E481FED890A02F09DFB43
:1013E0000A2206217B481FED8C0A02F096FB774803
:1013F000008803286AD1012D2AD1754890ED000A92
:10140000F0EE000A30EE600A80ED000A714890EDBF
:10141000000AF0EE000A30EE600A80ED000A6C4827
:10142000D0ED000A604200EE100AB8EEC00AF4EEF9
:10143000400AF1EE10FA49D1664890ED000AB5EE87
:10144000C00AF1EE10FA41D10420604908803DE065
:10145000022D2AD15E4890ED000AF0EE000A30EE2F
:10146000600A80ED000A5B4890ED000AF0EE000A89
:1014700030EE200A80ED000A5548D0ED000A6042A7
:1014800000EE100AB8EEC00AF4EE400AF1EE10FACF
:101490001CD1504890ED000AB5EEC00AF1EE10FAEA
:1014A00014D104204949088010E0002047490880F1
:1014B0000A22062146481FEDC00A02F02EFB0A222E
:1014C000062144481FEDC40A02F027FB3F4800886C
:1014D000042869D1012D2AD13D4890ED000AF0EE93
:1014E000000A30EE200A80ED000A3A4890ED000A2A
:1014F000F0EE000A30EE600A80ED000A344890ED0C
:10150000000AB5EEC00AF1EE10FA4DD13148D0ED27
:10151000000A604200EE100AB8EEC00AF4EE400A7B
:10152000F1EE10FA40D10020284908803CE0022D5D
:1015300029D1274890ED000AF0EE000A30EE200A8B
:1015400080ED000A234890ED000AF0EE000A30EE2C
:10155000200A80ED000A1E4890ED000AB5EEC00A90
:10156000F1EE10FA20D11B48D0ED000A00EE104A2F
:10157000B8EEC00AF4EE400AF1EE10FA14D10020E1
:101580001249088010E00020104908800A22062134
:101590000F481FEDF70A02F0C0FA0A2206210D4893
:1015A0001FEDFB0A02F0B9FA70BD70B52DED0E8B80
:1015B00005460C46DFED081A9FED081A0848D0EDE5
:1015C000000A084890ED000A07480FE04800002094
:1015D00040000020440000200000C842000000003D
:1015E000500000204C000020A8040020FFF7AAFBB8
:1015F000FE4890ED061AF0EE410AFD4890ED021A01
:10160000B8EEC11AB0EE410A4FF4804243F2C8214D
:101610001FED0F1AF548483002F0E9F8F34890ED55
:10162000071AF0EE410AF24890ED071AB8EEC11A17
:10163000B0EE410A4FF4804243F2C8211FED1A1A5E
:10164000EA48A83002F0D3F8E84890ED081AF0EE26
:10165000410AE74890ED0C1AB8EEC11AB0EE410A03
:101660004FF4804243F2C8211FED251AE14802F0F1
:10167000BEF8DE4890ED091AF0EE410ADC4890ED24
:10168000111AB8EEC11AB0EE410A4FF4804243F28B
:10169000C8211FED2F1AD748603002F0A8F8D34EAA
:1016A00096ED610ABDEEC00A10EE106A33B2CF4E5D
:1016B00096ED490ABDEEC00A10EE106A32B2CB4E6A
:1016C00096ED310ABDEEC00A10EE106A31B2C74E77
:1016D00096ED190ABDEEC00A10EE106A30B2FEF7A0
:1016E000B6FF0020C4490870C4480088844202D074
:1016F0000020C3490880012C61D128460FF07FF9F2
:1017000041EC190BBE4800880FF08AF941EC1D0B23
:101710009FEDBC0B53EC102B0FF090F841EC1C0B21
:101720009FEDBA0B53EC102B0FF0FAF841EC1B0BAA
:10173000B0EE4B0AF0EE6B0A0FF05EFCB0EE40AA82
:10174000F0EE60AA53EC192B51EC1A0B0FF076F85F
:1017500041EC180B0FF09CF9AE49086028460FF0D9
:101760004EF941EC190BA64800880FF059F941ECED
:101770001D0B9FEDA40B53EC102B0FF05FF841EC09
:101780001C0B9FEDA20B53EC102B0FF0C9F841EC92
:101790001B0BB0EE4B0AF0EE6B0A0FF0BDFBB0EE88
:1017A00040AAF0EE60AA53EC192B51EC1A0B0FF083
:1017B00045F841EC180B0FF06BF997490860022CC3
:1017C00069D128460FF01BF941EC190B8C480088B1
:1017D0000FF026F941EC1E0B9FED8A0B53EC102BFA
:1017E0000FF02CF841EC1D0B9FED880B53EC102BE8
:1017F0000FF096F841EC1C0B81F0004141EC1B0B03
:10180000B0EE4B0AF0EE6B0A0FF0F6FBB0EE40AA1A
:10181000F0EE60AA53EC192B51EC1A0B0FF00EF8F6
:1018200041EC180B0FF034F97A49086028460FF0A4
:10183000E6F841EC190B724800880FF0F1F841EC22
:101840001E0B9FED700B53EC102B0EF0F7FF41ECCD
:101850001D0B9FED6E0B53EC102B0FF061F841EC5C
:101860001C0B81F0004141EC1B0BB0EE4B0AF0EE7B
:101870006B0A0FF051FBB0EE40AAF0EE60AA53ECF9
:10188000192B51EC1A0B0EF0D9FF41EC180B0FF08D
:10189000FFF861490860032C0DD10A2208215D4838
:1018A0001FEDB20A02F039F90A2208215A481FED49
:1018B000B50A02F032F952480088401C50490880AD
:1018C00008460088B0F5B47F01D1002008804B495C
:1018D0000C80BDEC0E8B70BD30B52DED108B83B040
:1018E000F0EE408AB0EE608AB0EE41FAF0EE61FAB6
:1018F00004464148007898B91FEDC80A474880ED72
:10190000000A1FEDCA0A464880ED000A1FEDCD0A05
:10191000444880ED000A1FEDCF0A434880ED000ADD
:101920005FEDD31A3F4890ED001A3D48D0ED000A14
:101930003A4890ED000A2D48FFF704FA012C01D037
:10194000022C7AD1294890ED061AF0EE410A284877
:1019500090ED021AB8EEC11AB0EE410A4FF480427F
:1019600043F2C8211FEDE41A2048483001F03FFF40
:101970001E4890ED071AF0EE410A1D4890ED071A37
:10198000B8EEC11AB0EE410A4FF4804243F2C821CA
:101990001FEDEF1A1748603801F029FF134890ED4A
:1019A000081AF0EE410A124890ED0C1AB8EEC11A6E
:1019B000B0EE410A4FF4804243F2C8211FEDFA1AFB
:1019C0000C4801F014FF094890ED091AF0EE410AA5
:1019D000074890ED111AB8EEC11AB0EE410A4FF463
:1019E000804243F2C8219FED111A22E0A804002092
:1019F0002C090020B00500203400002054000020F5
:101A0000560000206F1283C0CA2109400000000068
:101A1000008066404C00002050000020580000204C
:101A20005C00002060000020740000200000C8421C
:101A300003E0FE4801F0DBFE7EE0FD48D0ED060A43
:101A4000B0EE600A96223221303002F066F8F84893
:101A5000D0ED070AB0EE600A96223221343002F04F
:101A60005CF8F348D0ED080AB0EE600A9622322105
:101A7000383002F052F8EE48D0ED090AB0EE600AB4
:101A8000962232213C3002F048F8E94890ED0C1AD9
:101A9000F0EE410AE74890ED021AB8EEC11AB0EE36
:101AA000410A4FF4804243F2C8211FED201AE0485A
:101AB000483001F09CFEDE4890ED0D1AF0EE410A30
:101AC000DC4890ED071AB8EEC11AB0EE410A4FF4A7
:101AD000804243F2C8211FED2B1AD548A83001F0EF
:101AE00086FED34890ED0E1AF0EE410AD14890EDF3
:101AF0000C1AB8EEC11AB0EE410A4FF4804243F21C
:101B0000C8211FED361AC948603801F070FEC84878
:101B100090ED0F1AF0EE410AC64890ED111AB8EE9A
:101B2000C11AB0EE410A4FF4804243F2C8211FEDC2
:101B3000411ABE4801F05BFEBD4D95ED610ABDEE58
:101B4000C00A10EE105A2BB2B94D95ED490ABDEE00
:101B5000C00A10EE105A2AB2B54D95ED310ABDEE0D
:101B6000C00A10EE105A29B2B14D95ED190ABDEE1A
:101B7000C00A10EE105A28B2FEF769FD0020AE49E7
:101B80000870AE4890ED000AF0EE000AB4EE600A6C
:101B9000F1EE10FA32D1A74890ED190AB8EEC00A5A
:101BA000A748D0ED000A30EE600AA64880ED000A92
:101BB00090ED000ADFEDA40AB4EEE00AF1EE10FAAF
:101BC00007DB90ED000ADFEDA10A30EE600A80ED40
:101BD000000A9C4890ED000ADFED9D0AB4EEE00A91
:101BE000F1EE10FA07D890ED000ADFED980A30EE1A
:101BF000200A80ED000A974880ED00FA8F4890EDAA
:101C0000000AF7EE000AB4EE600AF1EE10FA11D104
:101C1000884890ED190AB8EEC00A8F48D0ED000A46
:101C200030EE600A874880ED000AB0EE000A834873
:101C300080ED000A7F48406EA0B1804890ED000A18
:101C4000B5EEC00AF1EE10FA0CD17A4890ED190AFF
:101C5000B8EEC00A804880ED000AB7EE000A774867
:101C600080ED000A734890ED190AB8EEC00A744876
:101C700080ED000A28EEA80A08EE080A10EE101AF5
:101C800008460EF0DAFE41EC1A0BB0EE4A0AF0EE0E
:101C90006A0A0FF015FAB0EE409AF0EE609A51EC35
:101CA000190B0EF0F5FE6D490860012C63D1084652
:101CB00000680EF0C2FE41EC1A0B624800680EF09C
:101CC000BCFE41EC1D0B9FED660B53EC102B0EF090
:101CD000B5FD41EC1E0B9FED640B53EC102B0EF089
:101CE0001FFE41EC1C0BB0EE4C0AF0EE6C0A0FF03C
:101CF00083F9B0EE40BAF0EE60BA53EC1A2B51EC17
:101D00001B0B0EF09BFD41EC190B0EF0C1FE584968
:101D10000860524800680EF090FE41EC1A0B4948EA
:101D200000680EF08AFE41EC1E0B9FED4D0B53EC4C
:101D3000102B0EF083FD41EC1D0B9FED4B0B53EC74
:101D4000102B0EF0EDFD41EC1C0BB0EE4C0AF0EE4A
:101D50006C0A0FF0E1F8B0EE40BAF0EE60BA53EC66
:101D60001A2B51EC1B0B0EF069FD41EC190B0EF018
:101D70008FFE40490860022C7ED1384800680EF082
:101D80005CFE41EC1A0B2F4800680EF056FE9FEDEA
:101D9000340B53EC102BCDE900019DED000B51EC01
:101DA000100B0EF04BFD41EC1E0B9FED2F0B53EC77
:101DB000102B0EF0B5FD41EC1D0B81F0004141EC04
:101DC0001C0BB0EE4C0AF0EE6C0A0FF015F9B0EEF9
:101DD00040BAF0EE60BA53EC1A2B51EC1B0B0EF02C
:101DE0002DFD41EC190B0EF053FE214908601B48F4
:101DF00000680EF022FE41EC1E0B124800680EF047
:101E00001CFE41EC1D0B9FED160B53EC102B0EF03E
:101E100015FD41EC1C0B9FED140B53EC102B0EF039
:101E20007FFD41EC1B0B81F0004126E010060020F5
:101E3000A80400202C090020340000207400002099
:101E40006C0000207000002000409C45000000460F
:101E500000409CC560000020680000206400002055
:101E60006F1283C0CA211940000000000000C0406A
:101E7000580000205C00002017E041EC1A0BB0EE87
:101E80004A0AF0EE6A0A0FF047F88DED000B53ECAA
:101E90001E2B9DED000B51EC100B0EF0CFFC41EC16
:101EA000190B0EF0F5FDFE490860032C00D044B973
:101EB000FC48C0ED008AFA4880ED008AFA4880EDBF
:101EC00000FA03B0BDEC108B30BD01B52DED040B55
:101ED00090B0F648007888B99FEDF50AF14880ED9A
:101EE000000A9FEDF30AEE4880ED000A9FEDF00A2C
:101EF000ED4880ED000A0020EE490880DDED131A60
:101F0000E94890ED001AE648D0ED000AE54890ED6A
:101F1000000AE948FEF716FF1498012802D0149829
:101F2000022867D1E44890ED060A8DED0F0AE348D8
:101F300090ED020AB8EEC00A8DED0E0A4FF4804211
:101F400043F2C8219FEDDE1ADDED0F0A9DED0E0A6A
:101F5000D948483001F04BFCD74890ED070A8DED89
:101F60000F0AD64890ED070AB8EEC00A8DED0E0AAA
:101F70004FF4804243F2C8219FEDD11ADDED0F0AE4
:101F80009DED0E0ACC48A83001F031FCCA4890ED16
:101F9000080A8DED0F0AC94890ED0C0AB8EEC00A88
:101FA0008DED0E0A4FF4804243F2C8219FEDC41A12
:101FB000DDED0F0A9DED0E0AC24801F018FCBE4887
:101FC00090ED090A8DED0F0ABC4890ED110AB8EEAC
:101FD000C00A8DED0E0A4FF4804243F2C8219FEDF6
:101FE000B81ADDED0F0A9DED0E0AB648603001F01B
:101FF000FEFB96E0B04890ED060A8DED0F0A9622A2
:10200000322130309DED0F0A01F087FDAA4890ED96
:10201000070A8DED0F0A9622322134309DED0F0A0A
:1020200001F07BFDA44890ED080A8DED0F0A962281
:10203000322138309DED0F0A01F06FFD9E4890ED82
:10204000090A8DED0F0A962232213C309DED0F0AD0
:1020500001F063FD984890ED0C0A8DED0F0A97484A
:1020600090ED020AB8EEC00A8DED0E0A4FF48042E0
:1020700043F2C8219FED921ADDED0F0A9DED0E0A85
:102080008D48483001F0B3FB8B4890ED0D0A8DED83
:102090000F0A8A4890ED070AB8EEC00A8DED0E0AC5
:1020A0004FF4804243F2C8219FED851ADDED0F0AFF
:1020B0009DED0E0A8348603801F099FB7E4890ED53
:1020C0000E0A8DED0F0A7D4890ED0C0AB8EEC00A9D
:1020D0008DED0E0A4FF4804243F2C8219FED781A2D
:1020E000DDED0F0A9DED0E0A764801F080FB724887
:1020F00090ED0F0A8DED0F0A704890ED110AB8EEC1
:10210000C00A8DED0E0A4FF4804243F2C8219FEDC4
:102110006C1ADDED0F0A9DED0E0A6A48603001F081
:1021200066FB654890ED610ABDEEC00A10EE100A2C
:1021300000B20F90604890ED490ABDEEC00A10EE63
:10214000100A00B20E905C4890ED310ABDEEC00A54
:1021500010EE100A00B20D90574890ED190ABDEE2E
:10216000C00A10EE100A00B20C900DA90EC9FEF7BD
:102170006EFA00204D4908704E48008802282FD181
:102180004E4890ED190AB8EEC00A4F48D0ED000A4B
:1021900030EE600A4D4880ED000A90ED000A5FEDD8
:1021A000D60AB4EEE00AF1EE10FA07DB90ED000A71
:1021B0005FEDDA0A30EE600A80ED000A434890EDE8
:1021C000000A5FEDDD0AB4EEE00AF1EE10FA07D87E
:1021D00090ED000A5FEDE30A30EE200A80ED000A80
:1021E00034480088012811D1344890ED190AB8EE1E
:1021F000C00A3748D0ED000A30EE600A334880ED5F
:10220000000AB0EE000A334880ED000A2B48406E09
:1022100068B12848008850B9284890ED190AB8EEEE
:10222000C00A2B4880ED000A01202249088023487B
:1022300090ED190AB8EEC00A234880ED000A9DED22
:10224000100A20EE000ADDED110A00EEA00A8DED65
:102250000B0A0B980EF0F1FBCDE90C019DED0C0B78
:102260000EF02EFF8DED0E0B9DED0E0B51EC100BB5
:102270000EF00EFC18490860149801287ED11198C0
:102280000EF0DBFBCDE908011048D0ED000A9FED10
:10229000131A80EE810A8DED010A019820E00000FA
:1022A0005C00002058000020600000203400002066
:1022B0000000000078000020A80400202C09002065
:1022C0000000C842B00500206C0000207000002013
:1022D0006800002074000020640000200000004618
:1022E0000EF0ABFB9FEDFE0B53EC102BCDE9020182
:1022F0009DED020B51EC100B0EF0A0FACDE904019C
:102300009DED040B0EF078FE8DED060B9DED080B98
:1023100053EC102B9DED060B51EC100B0EF08EFACA
:10232000CDE90C0110980EF088FBCDE90801EE48CC
:10233000D0ED000A1FED171A80EE810A8DED010A1B
:1023400001980EF07AFB9FEDE60B53EC102BCDE9D4
:1023500002019DED020B51EC100B0EF06FFACDE96E
:1023600004019DED040B0EF0D7FD8DED060B9DEDE8
:10237000080B53EC102B9DED060B00E094E051ECA4
:10238000100B0EF05BFACDE90A019DED0C0B53EC3E
:10239000102B9DED0A0B51EC100B0EF049FACDE914
:1023A0000E019DED0E0B51EC100B0EF071FBCF49A1
:1023B000086011980EF041FBCDE90801CA48D0ED44
:1023C000000A1FED3A1A80EE810A8DED010A01988C
:1023D0000EF033FB9FEDC20B53EC102BCDE9020145
:1023E0009DED020B51EC100B0EF028FACDE9040123
:1023F0009DED040B0EF090FD8DED060B9DED080B91
:1024000053EC102B9DED060B51EC100B0EF016FA51
:10241000CDE90C0110980EF010FBCDE90801B2488F
:10242000D0ED000A1FED531A80EE810A8DED010AEE
:1024300001980EF002FB9FEDAA0B53EC102BCDE997
:1024400002019DED020B51EC100B0EF0F7F9CDE9F6
:1024500004019DED040B0EF0CFFD8DED060B9DEDFF
:10246000080B53EC102B9DED060B51EC100B0EF0EE
:10247000E5F9CDE90A019DED0C0B53EC102B9DED18
:102480000A0B51EC100B0EF032F9CDE90E019DED67
:102490000E0B51EC100B0EF0FBFA954908609FED06
:1024A000950A954880ED000A149802287ED111986B
:1024B0000EF0C3FACDE908018B48D0ED000A1FEDFC
:1024C000791A80EE810A8DED010A01980EF0B5FAB5
:1024D0009FED830B53EC102BCDE902019DED020B18
:1024E00051EC100B0EF0AAF9CDE904019DED040B9F
:1024F0000EF082FD8DED060B9DED080B53EC102BBD
:102500009DED060B51EC100B0EF098F9CDE90C0186
:1025100010980EF092FACDE908017348D0ED000A48
:102520001FED921A80EE810A8DED010A01980EF0DE
:1025300084FA9FED6B0B53EC102BCDE902019DED5E
:10254000020B51EC100B0EF079F9CDE904019DED71
:10255000040B0EF0E1FC8DED060B9DED080B53EC2A
:10256000102B9DED060B51EC100B0EF067F9CDE929
:102570000A019DED0C0B53EC102B9DED0A0B51EC59
:10258000100B0EF055F9CDE90E019DED0E0B51EC3F
:10259000100B0EF07DFA5549086011980EF04DFAB7
:1025A000CDE908015048D0ED000A00E072E01FEDCF
:1025B000B51A80EE810A8DED010A01980EF03DFA00
:1025C0009FED470B53EC102BCDE902019DED020B63
:1025D00051EC100B0EF032F9CDE904019DED040B26
:1025E0000EF09AFC8DED060B9DED080B53EC102BB5
:1025F0009DED060B51EC100B0EF020F9CDE90C010E
:1026000010980EF01AFACDE908013748D0ED000A0B
:102610001FEDCE1A80EE810A8DED010A01980EF0B1
:102620000CFA9FED2F0B53EC102BCDE902019DED21
:10263000020B51EC100B0EF001F9CDE904019DEDF8
:10264000040B0EF0D9FC8DED060B9DED080B53EC41
:10265000102B9DED060B51EC100B0EF0EFF8CDE9B1
:102660000A019DED0C0B53EC102B9DED0A0B51EC68
:10267000100B0EF03CF8CDE90E019DED0E0B51EC68
:10268000100B0EF005FA1A4908609FED1A0A1A4855
:1026900080ED000A1498032802D0149800287DD1F8
:1026A00011980EF0CAF9CDE908010F48D0ED000AE3
:1026B0001FEDF61A80EE810A8DED010A01980EF0E9
:1026C000BCF99FED070B53EC102BCDE902019DEDFA
:1026D000020B51EC100B0EF0B1F8CDE904010DE046
:1026E0006F1283C0CA2119407000002058000020DA
:1026F0005C00002000803B45600000209DED040B45
:102700000EF07AFC8DED060B9DED080B53EC102BB3
:102710009DED060B51EC100B0EF090F8CDE90C017D
:1027200010980EF08AF9CDE908015F48D0ED000A53
:102730009FED5E1A80EE810A8DED010A01980EF080
:102740007CF91FED190B53EC102BCDE902019DED27
:10275000020B51EC100B0EF071F8CDE904019DED68
:10276000040B0EF0D9FB8DED060B9DED080B53EC21
:10277000102B9DED060B51EC100B0EF05FF8CDE920
:102780000A019DED0C0B53EC102B9DED0A0B51EC47
:10279000100B0EF04DF8CDE90E0100E082E09DED4A
:1027A0000E0B51EC100B0EF073F9414908601198B3
:1027B0000EF043F9CDE908013B48D0ED000A9FED4A
:1027C0003B1A80EE810A8DED010A01980EF035F971
:1027D0001FED3D0B53EC102BCDE902019DED020BDB
:1027E00051EC100B0EF02AF8CDE904019DED040B1D
:1027F0000EF092FB8DED060B9DED080B53EC102BAC
:102800009DED060B51EC100B0EF018F8CDE90C0104
:1028100010980EF012F9CDE908012348D0ED000A16
:102820009FED221A80EE810A8DED010A01980EF0CB
:1028300004F91FED550B53EC102BCDE902019DED72
:10284000020B51EC100B0DF0F9FFCDE904019DEDE9
:10285000040B0EF0D1FB8DED060B9DED080B53EC38
:10286000102B9DED060B51EC100B0DF0E7FFCDE9A1
:102870000A019DED0C0B53EC102B9DED0A0B51EC56
:10288000100B0DF034FFCDE90E019DED0E0B51EC58
:10289000100B0EF0FDF8074908609DED120A06487E
:1028A00080ED000A15B000BD700000200000004659
:1028B000580000205C000020600000200021016121
:1028C000C1609FED410A80ED010A9FED3F0A80ED56
:1028D000050A81609FED3C0A80ED060A9FED3A0AE9
:1028E00080ED000A704710B59FED381ADFED360A0B
:1028F0009FED370A374800F0C1FCB2EE001ADFED59
:10290000360AB3EE0A0A354800F0B8FCB6EE001AF3
:10291000DFED330A9FED330A334800F0E2FCB7EEF7
:10292000081ADFED320AB3EE040A314800F0D9FC90
:102930009FED251ADFED240AB0EE080A2D4800F0BD
:10294000D0FC10BD70B52DED048B04460D46E87A21
:102950000106287B41EA0041687B41EA0020A97B0F
:102960000843A06094ED060A84ED050AA0680EF005
:1029700046F841EC190B9FED200B53EC102B0DF09A
:102980005DFF41EC180B0EF083F8A06194ED060A90
:10299000D4ED050A30EE600ADFED190A20EE200AB8
:1029A00084ED010A94ED060AD4ED050A70EE600A82
:1029B00094ED000A9FED0A1A00EE810A84ED000AE8
:1029C000BDEC048B70BD000000000000000054420C
:1029D0008FC2153FAC070020F628DC3E4C070020D4
:1029E0000000C8426666663FCC0800200000044232
:1029F0006C0800200C0800207B14AE47E17A843F6D
:102A00000000C84439B1F94A127822B9F84A118055
:102A10000122F64B1A70F54A1278012A03D1F44AC2
:102A2000B2F9002042600022F04B1A70704710B5D6
:102A3000F04890ED001AF0EE410A90ED021AB0EE67
:102A4000410A43F2C82243F698219FEDEB1A00F0A9
:102A5000CEFEE84890ED071AF0EE410AE74890ED07
:102A6000021AB8EEC11AB0EE410A43F69822114696
:102A70009FEDE31AE34800F0BAFEE34890ED001A38
:102A8000F0EE410A90ED021AB0EE410A43F2C8227C
:102A900043F698219FEDD81A00F0A9FEDA4890ED90
:102AA000071AF0EE410AD54890ED0C1AB8EEC11A9B
:102AB000B0EE410A4FF4804242F6F8219FEDD01A61
:102AC000D24800F094FED04890ED071AB1EE411ABA
:102AD000F0EE410AC94890ED111AB8EEC11AB0EEF5
:102AE000410A4FF4804242F6F8219FEDC51AC848CA
:102AF00000F07DFEC74890ED001AF0EE410A90ED1F
:102B0000021AB0EE410A42F6F82243F698219FEDF0
:102B1000BA1A00F06CFEBF4890ED071AF0EE410AB9
:102B2000B64890ED071AB8EEC11AB0EE410A43F666
:102B3000982211469FEDB21AB74800F058FEB44CE7
:102B400094ED070ABDEEC00A10EE104A23B2AF4C56
:102B500094ED070ABDEEC00A10EE104A22B2AE4C48
:102B600094ED070ABDEEC00A10EE104A21B2A54C42
:102B700094ED070ABDEEC00A10EE104A20B2FDF730
:102B800017FF10BDA04890ED010ADFEDA40AB4EED6
:102B9000E00AF1EE10FA09DBA1480078012805D11E
:102BA0009FED9E0A984880ED020A54E0964890ED09
:102BB000010ADFED9C0AB4EEE00AF1EE10FA09D842
:102BC00097480078022805D19FED960A8E4880ED3F
:102BD000020A40E08C4890ED010ADFED930AB4EE62
:102BE000E00AF1EE10FA09DB8D480078032805D1E0
:102BF0009FED8D0A844880ED020A2CE0824890ED1A
:102C0000010ADFED8A0AB4EEE00AF1EE10FA09D803
:102C100083480078042805D19FED840A7A4880ED26
:102C2000020A18E0784890ED010ADFED7E0AB4EE62
:102C3000E00AF1EE10FA09D879480078052805D1A4
:102C40009FED780A704880ED020A04E06E4890ED2E
:102C5000010A80ED020A70476E4890ED010ADFED2F
:102C6000740AB4EEE00AF1EE10FA09D8714800785F
:102C7000012805D19FED6E0A664880ED020A17E033
:102C8000644890ED010ADFED6C0AB4EEE00AF1EE63
:102C900010FA08DB6748007828B99FED670A5D489D
:102CA00080ED020A04E05B4890ED010A80ED020A23
:102CB0007047504890ED010ADFED600AB4EEE00A7B
:102CC000F1EE10FA09D85E480078012805D19FED91
:102CD0005B0A484880ED020A2CE0464890ED010A64
:102CE000DFED580AB4EEE00AF1EE10FA09DB5448C1
:102CF0000078022805D19FED530A3E4880ED020A74
:102D000018E03C4890ED010ADFED4F0AB4EEE00A0E
:102D1000F1EE10FA09D84A480078032805D19FED52
:102D20004A0A344880ED020A04E0324890ED010A74
:102D300080ED020A704710B53048008801B22D4876
:102D400000F007FB2D48008D01B22F4800F001FB79
:102D50002A48808A01B22F4800F0FBFA10BD9FED8F
:102D60003B0A244880ED000A9FED380A80ED010AF5
:102D70009FED360A274880ED010A9FED340A80ED69
:102D8000000A9FED320A204880ED010A9FED2F0ACC
:102D900080ED000A9FED2D0A2D4880ED010A704755
:102DA0001F48007868B92648007850B99FED270A77
:102DB000154880ED000A9FED250A0E4880ED000AB7
:102DC00070E017480078012805D19FED220A0E48CF
:102DD00080ED000A66E01248007802283CD19FEDA1
:102DE0001B0A094880ED000A5CE00000800000201A
:102DF00082000020EC0B002000803B45CC09002025
:102E000000007A444C0C00206C0A0020CC0A002000
:102E10008C0B0020AC0C00200C0D00200014CD47C2
:102E2000B800002000803BC500401C470000FA4469
:102E300000E6AAC8BD00002000401C4600777B4980
:102E4000B900002000D8564900401CC60000000010
:102E50002C0B0020002CC947EA48007803280ED12B
:102E60009FEDE90AE94880ED000A0120E849087071
:102E7000E8480088401C00B2E649088012E0E148BA
:102E80000078042805D19FEDE40AE04880ED000AAF
:102E900008E0DC480078052804D11FED140ADB485F
:102EA00080ED000A7047DD48007828B91FED190A47
:102EB000DB4880ED000A08E0D8480078012804D1FA
:102EC0009FEDD80AD64880ED000A7047D6480078B2
:102ED00050B91FED220ACD4880ED000A1FED250AEA
:102EE000D24880ED000A12E0CF480078012805D1D1
:102EF0009FEDCF0ACD4880ED000A08E0CA4800786F
:102F0000022804D19FEDCB0AC84880ED000A704723
:102F100010B59FEDC91ADFEDC90A9FEDC90ABB487C
:102F200000F0ACF91FED371A5FED380AB7EE040A6E
:102F3000C44800F0A3F91FED3B1A5FED3C0AB7EE61
:102F4000040AC14800F09AF99FEDC01ADFEDC00AEB
:102F50009FEDBB0AB54800F091F91FED441A5FEDF3
:102F6000450A9FEDBC0ABC4800F088F99FEDB71AEE
:102F7000DFEDB70A9FEDB20AA94800F07FF91FED17
:102F80004D1A5FED4E0A9FEDB30AB44800F076F992
:102F900010BD08B5FFF7BCFF00BF06F0BAFB0090FC
:102FA0002FE1AF48007A012807D0AD48007A022807
:102FB00003D0AB48007A032870D1AA48007820B922
:102FC000FFF7CDFE00208F490870FFF77FFFFFF766
:102FD0006AFFFFF7E5FEFFF7AEFEFFF76AFEFFF7B9
:102FE0003BFEFFF7CFFDFFF722FD904890ED040A6E
:102FF0005FED7F0AB4EEE00AF1EE10FA1DD890ED15
:10300000040A5FED780AB4EEE00AF1EE10FA14DB80
:1030100085480078012802D1934908700DE0824864
:103020000078022802D19049087006E07E480078B6
:10303000032802D100208C490870744890ED040ADE
:10304000DFED8A0AB4EEE00AF1EE10FA25D890ED31
:10305000040ADFED870AB4EEE00AF1EE10FA1CDB99
:103060006848007801281AD182490870824800888F
:10307000401C00B2804908806248007801287BD15A
:103080000846B0F90000962876DB022079490870DE
:103090000020794908805F4908806DE08DE059483B
:1030A000007802281BD103207249087072480088FA
:1030B000401C00B2704908805248007802285BD159
:1030C0000846B0F90000B0F5AF7F55DB0420694930
:1030D00008700020684908804E4908804CE0494843
:1030E0000078032829D164480088401C00B2624956
:1030F00008804448007803280DD10846B0F9000044
:10310000012808DB0846B0F900000A2803DC052086
:103110005849087030E03B48007803282CD15648C5
:10312000B0F90000C82827DB0620524908700020AB
:1031300051490880374908801EE032480078042849
:103140001AD107204B4908704B480088401C00B238
:10315000494908802B48007804280DD10846B0F969
:103160000000B0F5967F07DB072042490870002079
:1031700041490880274908802548007840B92548FA
:10318000B0F90000642803DB00202249088031E008
:103190001F48007801282DD11E48B0F900000D28E5
:1031A00028DB1C48B0F90000642823DA05203149E7
:1031B00008700020164908701CE02A48007840B9C1
:1031C000FFF7CDFD00200F4908702A490870164905
:1031D0000870FFF7B0FDFFF76CFDFFF73DFDFFF74F
:1031E000D1FCFFF724FC0020064908702149087033
:1031F0000D49087000201B4908700121684605F040
:103200003BFFCEE6B8000020007014476C0A002097
:10321000920000208C00002000409C45BD00002052
:10322000AC0C00200022A1C8B9000020EC0B00204B
:10323000002474C900854F490000A0428FC2F53CAC
:1032400033337340CC0A00208C0B0020000048422E
:10325000CDCC4C3D9A99993F4C0C00200C0D002090
:10326000A00D0020350000208900002000009643BA
:10327000000096C3880000208A000020DFEDFE1ABF
:10328000C0ED011ADFEDFC1AC0ED061AC0ED051AFB
:10329000C0ED041ADFEDF81AC0ED071ADFEDF61ADB
:1032A000C0ED001ADFEDF41AC0ED091ADFEDF21AD5
:1032B000C0ED111AC0ED101AC0ED0F1A80ED0A0A08
:1032C000C0ED0B0A80ED0C1ADFEDEB1AC0ED121AFF
:1032D000DFEDE91AC0ED131ADFEDE71AC0ED141A9D
:1032E0007047DFEDE51AC0ED011ADFEDE31AC0ED1E
:1032F000061AC0ED051AC0ED041ADFEDDF1AC0EDA5
:10330000071ADFEDDD1AC0ED001ADFEDDB1AC0EDA4
:10331000091ADFEDD91AC0ED111AC0ED101AC0ED6F
:103320000F1AC0ED0D0A80ED0E1A80ED0A0ADFEDCE
:10333000D21AC0ED121ADFEDD01AC0ED131ADFED6C
:10334000CE1AC0ED141A0021A0F85410A0F856109F
:10335000704720F8541FB0F90020B0F90230D21A9B
:1033600000EE102AB8EEC00A80ED020A90ED020AC3
:103370005438DFEDC20AB4EEE00AF1EE10FA0DDDCA
:1033800090ED170ADFEDBE0AB4EEE00AF1EE10FA96
:1033900004D290ED170A80ED170A22E090ED170A8B
:1033A000DFEDB60AB4EEE00AF1EE10FA08D890EDBF
:1033B000170ADFEDB40A30EE200A80ED170A10E09C
:1033C00090ED170ADFEDAE0AB4EEE00AF1EE10FA66
:1033D00007DB90ED170ADFEDAB0A30EE600A80EDF7
:1033E000170A90ED010AD0ED170A30EE200A80EDA1
:1033F000010AB0F85420A0F85620704770B52DEDA2
:10340000108B0446F0EE408AB0EE60FAB0EE418ACE
:103410000D46164694ED0D0AB5EEC00AF1EE10FA0F
:1034200004D19FED950A84ED0B0A07E094ED0A0A9A
:10343000D4ED0D0A80EE201A84ED0B1A94ED0A0AE1
:10344000D4ED0E0A20EE200A84ED0C0A94ED050A54
:1034500084ED060A94ED040A84ED050AC4ED018AA0
:1034600084ED00FA94ED000AD4ED010A30EE600A12
:1034700084ED040A8448007810B18448007810B9BB
:103480000020834908708248007830BB9FED7A0A9B
:1034900084ED090A18EE100A0DF0CFFA41EC190B71
:1034A00094ED040A10EE101A08460DF0C6FA41EC2D
:1034B0001B0BB0EE4B0AF0EE6B0A0DF091FDB0EE77
:1034C00040AAF0EE60AA53EC192B51EC1A0B0DF048
:1034D000C7FA02D801206E4908706D480078E8B339
:1034E00018EE100A0DF0A9FA41EC1A0B94ED040A3B
:1034F00010EE101A08460DF0A0FA41EC1E0BB0EECB
:103500004E0AF0EE6E0A0DF06BFDB0EE40CAF0EE22
:1035100060CA18EE100A0DF090FA41EC1D0B53EC46
:103520001C2B0DF085F941EC1B0B53EC1A2B0DF005
:10353000F7F941EC190B0DF0ABFA56490860084653
:1035400090ED000AB5EEC00AF1EE10FA03D8B7EE1E
:10355000000A80ED000A94ED040A00E00DE0D4EDCD
:10356000050A70EE200AB0EE001A80EE810AD4ED52
:10357000090A30EE200A84ED090AD4ED090A00EEAA
:10358000105AB8EEC00AF4EEC00AF1EE10FA06DDE9
:1035900000EE105AB8EEC00A84ED090A12E0D4ED2C
:1035A000090A684200EE100AB8EEC00AF4EEC00A3A
:1035B000F1EE10FA06D2684200EE100AB8EEC00A28
:1035C00084ED090A94ED100A84ED110A94ED0F0AB6
:1035D00084ED100A94ED040AD4ED050A30EE600A79
:1035E00084ED0F0A94ED0A0AD4ED040A20EE200AB5
:1035F00084ED120A94ED0B0A2648D0ED000A20EE65
:10360000200AD4ED090A20EE200A84ED130AD4ED35
:103610000F0AB0EE081A80EE810AD4ED100AB0EE5F
:10362000081AC0EE811A30EE210AD4ED110AB0EE6C
:10363000081AC0EE811A30EE210AD4ED0C0A20EEF1
:10364000200A84ED140A94ED120AD4ED130A30EE28
:10365000200AD4ED140A30EE200A84ED070AD4EDD6
:10366000070A00EE106AB8EEC00AF4EEC00AF1EEE6
:1036700010FA18DD10E000000000000000803BC5DB
:1036800000803B450000004634000020350000204B
:10369000990000209C00002000EE106AB8EEC00ADD
:1036A00084ED070A12E0D4ED070A704200EE100A1A
:1036B000B8EEC00AF4EEC00AF1EE10FA06D270427B
:1036C00000EE100AB8EEC00A84ED070A94ED070A6E
:1036D00084ED080ABDEC108B70BDD0ED050AC0ED7D
:1036E000060AD0ED040AC0ED050A80ED010A00EEDD
:1036F000901AF8EEE00AC0ED000AD0ED000A90ED55
:10370000011A70EEC10AC0ED040AD0ED040A90ED72
:10371000051A70EEC10A90ED0A1A60EE810AC0ED3A
:10372000120AD0ED0B0A90ED041A60EE810AC0ED8A
:10373000130AD0ED100AC0ED110AD0ED0F0AC0ED4A
:10374000100AD0ED040A90ED051AF0EE001A41EED1
:10375000C10A90ED061A70EE810AC0ED0F0AD0ED95
:103760000F0A90ED101AF0EE001A41EEC10A90ED2A
:10377000111A70EE810A90ED0C1A60EE810AC0ED0C
:10378000140AD0ED120A90ED131A70EE810A90ED32
:10379000141A70EE810A90ED071A70EE810AC0EDDE
:1037A000070A90ED071A00EE902AF8EEE00AB4EE50
:1037B000E01AF1EE10FA06DD00EE902AF8EEE00ACB
:1037C000C0ED070A12E090ED071A534200EE903A5E
:1037D000F8EEE00AB4EEE01AF1EE10FA06D2534227
:1037E00000EE903AF8EEE00AC0ED070A704770B5B7
:1037F0002DED0A8B0446B0EE408AF0EE608AB0EE02
:10380000419A0D46164694ED050A84ED060A94ED9C
:10381000040A84ED050A84ED018AC4ED008A94ED62
:10382000000AD4ED010A30EE600A84ED040AFA4879
:10383000007828B9F948007810B90020F8490870D4
:10384000F748007830BB1FED740A84ED090A19EEC1
:10385000100A0DF0F2F841EC1A0B94ED040A10EE88
:10386000101A08460DF0E9F841EC1C0BB0EE4C0ABA
:10387000F0EE6C0A0DF0B4FBB0EE40BAF0EE60BAB8
:1038800053EC1A2B51EC1B0B0DF0EAF802D8012077
:10389000E3490870E248007878B194ED040AD4ED69
:1038A000050A30EE200AF0EE000A80EE201A94EDB0
:1038B000090A31EE000A84ED090AD4ED090A00EE86
:1038C000105AB8EEC00AF4EEC00AF1EE10FA06DDA6
:1038D00000EE105AB8EEC00A84ED090A12E0D4EDE9
:1038E000090A684200EE100AB8EEC00AF4EEC00AF7
:1038F000F1EE10FA06D2684200EE100AB8EEC00AE5
:1039000084ED090A94ED100A84ED110A94ED0F0A72
:1039100084ED100A94ED040AD4ED050A30EE600A35
:1039200084ED0F0A94ED0A0AD4ED040A20EE200A71
:1039300084ED120A94ED0B0AD4ED090A20EE200A58
:1039400084ED130AD4ED0F0AB0EE081A80EE810A56
:10395000D4ED100AB0EE081AC0EE811A30EE210A3A
:10396000D4ED110AB0EE081AC0EE811A30EE210A29
:10397000D4ED0C0A20EE200A84ED140A94ED120A0C
:10398000D4ED130A30EE200AD4ED140A30EE200AEA
:1039900084ED070AD4ED070A00EE106AB8EEC00AFB
:1039A000F4EEC00AF1EE10FA06DD00EE106AB8EE91
:1039B000C00A84ED070A12E0D4ED070A704200EE57
:1039C000100AB8EEC00AF4EEC00AF1EE10FA06D200
:1039D000704200EE100AB8EEC00A84ED070ABDEC92
:1039E0000A8B70BD70472DE9F04F87B005460E4633
:1039F00017469846DDE910AB0024A146002006904A
:103A0000142101A80CF058FEAA222146641C01A82A
:103A1000425430222146641C4254AF222146641C89
:103A2000425402222146641C425400222146641C56
:103A30004254C5F307222146641C42542146641CAB
:103A40004554C6F307222046611CCCB201A90A5492
:103A50002046611CCCB201A90E54C7F307222046B0
:103A6000611CCCB201A90A542046611CCCB201A948
:103A70000F54C8F307222046611CCCB201A90A5496
:103A80002046611CCCB201A901F80080CAF30722CC
:103A90002046611CCCB201A90A542046611CCCB25C
:103AA00001A901F800A0CBF307222046611CCCB28B
:103AB00001A90A542046611CCCB201A901F800B04A
:103AC000601FC0B28DF8080000BF0AE001A810F81E
:103AD000091006980844C0B2069009F101004FFA97
:103AE00080F9A145F2DB2146621CD4B201AA0698F6
:103AF000505400200CE000BF4A49098801F0400101
:103B00000029F9D001A9095C464A9180411CC8B23C
:103B1000A042F0DB07B0BDE8F08FD0ED000AF5EE73
:103B2000C00AF1EE10FA0BDCD0ED000AF5EEC00A87
:103B3000F1EE10FA50D1B5EEC00AF1EE10FA4BDBFF
:103B4000D0ED000A30EE601A00EE901AF8EEE00AAE
:103B5000B4EEE01AF1EE10FA11DDD0ED000AF4EE49
:103B6000C00AF1EE10FA0AD290ED001A00EE901A97
:103B7000F8EEE00A71EE200AC0ED000A20E0D0ED78
:103B8000000A30EEC01A00EE902AF8EEE00AB4EE19
:103B9000E01AF1EE10FA11DDD0ED000AF4EEC00AE1
:103BA000F1EE10FA0ADD90ED001A00EE902AF8EE20
:103BB000E00A71EE600AC0ED000A01E080ED000A43
:103BC000D0ED000AF5EEC00AF1EE10FA5AD2DFEDA0
:103BD000160AC0ED000A55E0D0ED000A30EEC01A1A
:103BE00000EE901AF8EEE00AB4EEE01AF1EE10FAE8
:103BF0001CDDD0ED000AF4EEC00AF1EE10FA15DD7E
:103C000090ED001A00EE901AF8EEE00A71EE600AEC
:103C1000C0ED000A2BE00000340000203500002039
:103C2000A00000200010014000000000D0ED000ABC
:103C300030EE601A00EE902AF8EEE00AB4EEE01AD8
:103C4000F1EE10FA11DDD0ED000AF4EEC00AF1EE4B
:103C500010FA0AD290ED001A00EE902AF8EEE00A6F
:103C600071EE200AC0ED000A01E080ED000AD0EDFF
:103C7000000AF5EEC00AF1EE10FA03DD5FED160A58
:103C8000C0ED000A7047D0ED000AF5EEC00AF1EE73
:103C900010FA7CDBB5EEC00AF1EE10FA5EDBD0ED77
:103CA000000A70EE600AF5EEC00AF1EE10FA26DBAB
:103CB000D0ED000A30EE601A00EE901AF8EEE00A3D
:103CC000B4EEE01AF1EE10FA09DB90ED001A00EE06
:103CD000901AF8EEE00A71EE200AC0ED000AD0ED6D
:103CE000000A30EE601A00EE901AF8EEE00AB4EE28
:103CF000E01AF1EE10FA31D280ED000A2EE0D0ED9C
:103D0000000A70EE600AF5EEC00AF1EE10FA25D254
:103D1000D0ED000A30EEC01A00EE902AF8EEE00A6C
:103D2000B4EEE01AF1EE10FA09DB90ED001A00EEA5
:103D3000902AF8EEE00A71EE600AC0ED000AD0EDBC
:103D4000000A30EEC01A00EE902AF8EEE00AB4EE57
:103D5000E01AF1EE10FA01D280ED000AB5EEC00AC9
:103D6000F1EE10FA27D2D0ED000A30EEC01A00EEC4
:103D7000901AF8EEE00AB4EEE01AF1EE10FA0BDB5E
:103D800090ED001A00EE901AF8EEE00A00E012E062
:103D900071EE600AC0ED000AD0ED000A30EEC01AE4
:103DA00000EE901AF8EEE00AB4EEE01AF1EE10FA26
:103DB00001D280ED000AD0ED000AF5EEC00AF1EE66
:103DC00010FA7DD2B5EEC00AF1EE10FA61D2D0ED54
:103DD000000A70EE600AF5EEC00AF1EE10FA27D87C
:103DE000D0ED000A30EE601A4B4200EE903AF8EE49
:103DF000E00AB4EEE01AF1EE10FA09D890ED001ADC
:103E000000EE901AF8EEE00A71EE600AC0ED000ACA
:103E1000D0ED000A30EE601A4B4200EE903AF8EE18
:103E2000E00AB4EEE01AF1EE10FA01DD80ED000ACE
:103E3000D0ED000A70EE600AF5EEC00AF1EE10FA5D
:103E400027DDD0ED000A30EEC01A534200EE903A62
:103E5000F8EEE00AB4EEE01AF1EE10FA09D890EDAF
:103E6000001A00EE902AF8EEE00A71EE200AC0ED8A
:103E7000000AD0ED000A30EEC01A534200EE903A2C
:103E8000F8EEE00AB4EEE01AF1EE10FA01DD80ED92
:103E9000000AB5EEC00AF1EE10FA27DDD0ED000AF7
:103EA00030EE601A00EE902AF8EEE00AB4EEE01A66
:103EB000F1EE10FA0BDB90ED001A00EE902A00E014
:103EC00014E0F8EEE00A71EE200AC0ED000AD0ED31
:103ED000000A30EE601A00EE902AF8EEE00AB4EE26
:103EE000E01AF1EE10FA01D280ED000A70470000EE
:103EF00008B500BF05F00DFC0090B7E06D48007AF2
:103F0000012878D102216C4802F0ECF86948407A27
:103F1000032862D16948007810B901206849087007
:103F200066480078012811D10421634802F0DAF8CC
:103F30000120634908706348B0F90000B0F5487F7C
:103F400003DB04215C4802F0CFF88BE05B4800788B
:103F500002280CD15A4908705A48B0F90000B0F54F
:103F6000487F7FDB0421544802F0BEF87AE05348D2
:103F7000007803280DD10220514908705148B0F94A
:103F80000000B0F5487F6DDB04214B4802F0ACF82F
:103F900068E04A480078042803D1032048490870A3
:103FA00060E046480078052807D10421424802F025
:103FB0009BF803204249087054E0404800780628E6
:103FC00003D104203E4908704CE03C4800780728A3
:103FD00048D105203A49087044E03648407A012823
:103FE0000AD12021384802F07DF8002034490870B9
:103FF0003249087036E00DE02021334802F074F8B1
:1040000002212D4802F06EF800202D4908702B493E
:10401000087027E02748007A022803D101202B49A5
:1040200008701FE02348407A032804D10121284862
:1040300002F058F807E01F48407A022803D1012116
:10404000234802F051F820211F4802F04DF80421C6
:10405000194802F049F800201949087017490870FA
:104060001A4908700121684605F006F846E720E085
:10407000184890ED000ADFED180AB4EEE00AF1EE00
:1040800010FA0EDB90ED000ADFED140AB4EEE00A40
:10409000F1EE10FA05D84FF48061114802F022F8D1
:1040A00004E04FF480610E4802F01EF8052005F090
:1040B0003EF8DDE7A00D0020000802408800002047
:1040C000B80000209400002000000240BD00002045
:1040D00000040240F400002000000C4200004842AE
:1040E0000010024032490143324A1160704770B5F6
:1040F000002100230F22C4781CB32E4C246804F442
:10410000E064C4F5E064C4F30721C1F10404E3B240
:104110000A4144789C40E1B28478144021430C0762
:10412000210E254C05786155047804F01F05012403
:10413000AC4005786D11AD0005F1E025C5F80041F2
:1041400009E0047804F01F050124AC401B4D0678FB
:10415000761145F8264070BD194A0A400243154BB6
:104160001B1F1A60704739B1124A121D12680243B0
:10417000104B1B1D1A6006E00E4A121D1268824386
:104180000C4B1B1D1A607047042808D14FF0E0212A
:10419000096941F004014FF0E022116107E04FF09E
:1041A000E021096921F004014FF0E022116170471C
:1041B0000000FA050CED00E000E400E080E100E022
:1041C00080FFFF1F704700BFFEE700BFFEE700BF94
:1041D000FEE700BFFEE7704710B50446FE48844284
:1041E00008D10121084601F07BF80021012001F0EF
:1041F00077F89DE0B4F1804F08D10121084601F025
:104200005EF80021012001F05AF891E0F348844261
:1042100008D10121022001F052F80021022001F012
:104220004EF885E0EE48844208D10121042001F0D7
:1042300046F80021042001F042F879E0E948844280
:1042400008D10121082001F03AF80021082001F0EE
:1042500036F86DE0E448844208D10121102001F0D5
:104260002EF80021102001F02AF861E0DF48844296
:1042700008D10121202001F022F80021202001F0A6
:104280001EF855E0DA48844208D10121022001F0ED
:1042900027F80021022001F023F849E0D5488442A4
:1042A00009D10121080401F01BF800214FF48030EE
:1042B00001F016F83CE0D048844209D101214804BD
:1042C00001F00EF800214FF4003001F009F82FE062
:1042D000CA48844209D10121880401F001F8002173
:1042E0004FF4802000F0FCFF22E0C548844208D152
:1042F0000121402000F0E3FF0021402000F0DFFF1B
:1043000016E0C048844208D10121802000F0D7FF88
:104310000021802000F0D3FF0AE0BB48844207D18F
:104320000121801500F0CBFF0021A01500F0C7FF90
:1043300010BD00220288A84B98420ED0AC4B984288
:104340000BD0B0F1804F08D0A44B984205D0A44BBD
:10435000984202D0A34B984204D14FF68F731A4073
:104360004B881A43A04B984207D0A04B984204D0E8
:104370004FF6FF431A400B891A4302804B68C36211
:104380000B880385944B984202D0994B984201D1F7
:104390008B7A03860123838270474FF0FF3141609F
:1043A00000210180018141808172704701858282F4
:1043B00070470A46002101884FF68F731940114358
:1043C0000180704741627047C16270470146486A88
:1043D00070470146088D704721B1028842F0020201
:1043E000028004E002884FF6FD731A400280704795
:1043F00021B1028842F00402028004E002884FF6F4
:10440000FB731A400280704721B1028842F080029B
:10441000028004E002884FF67F731A4002807047E2
:1044200002884FF6F7731A40028002880A4302801E
:10443000704702884FF6FF431A40028002880A4301
:104440000280704721B1028842F00102028004E03C
:1044500002884FF6FE731A400280704770B5002440
:1044600000220023058C4FF6FE7635400584028C31
:104470008388048B4FF68F752C40B51E2C400D8819
:104480002C43751E2A408D892A434D882A43524D5C
:10449000A84202D0564DA84213D14FF6F7752A40D4
:1044A000CD892A434FF6FB752A408D882A434FF663
:1044B000FF652B404FF6FF552B400D8A2B434D8A4D
:1044C0002B43838004838D684563028470BD70B57F
:1044D000002400220023058C4FF6EF76354005843A
:1044E000028C8388048B48F6FF752C404FF6FF45FD
:1044F0002C400D884FF6FF7606EA05252C434FF633
:10450000DF752A408D8906EA05152A434D8806EA9B
:1045100005152A43304DA84202D0354DA8421DD181
:104520004FF67F752A40CD894FF6FF7606EA0515CE
:104530002A434FF6BF752A408D8806EA05152A439F
:104540004FF6FF352B404FF2FF752B400D8A06EAE0
:1045500085052B434D8A06EA85052B43838004831A
:104560008D688563028470BD70B50024002200232D
:10457000058C4FF6FF6635400584028C8388848B5A
:104580004FF68F752C404FF6FC752C400D882C4350
:104590004FF6FF552A408D894FF6FF7606EA05252E
:1045A0002A434D8806EA05252A430B4DA84202D02E
:1045B0000F4DA84238D14FF2FF752A40CD894FF6F2
:1045C000FF7606EA05252A434FF6FF352A408D88F7
:1045D00006EA05252A4319E00000014000040040D6
:1045E00000080040000C0040001000400014004093
:1045F00000040140004001400044014000480140E7
:1046000000180040001C0040002000404EF6FF75DE
:104610002B404DF6FF752B400D8A06EA05152B43FE
:104620004D8A06EA05152B43838084838D68C56314
:10463000028470BD70B5002200230024058C4EF664
:10464000FF7635400584038C8488828B48F6FF759D
:104650002A404FF6FF452A400D884FF6FF7606EABE
:1046600005252A434DF6FF752B408D8906EA053551
:104670002B434D8806EA05352B43FE4DA84202D058
:10468000FD4DA84208D14BF6FF752C400D8A4FF620
:10469000FF7606EA85152C43848082838D68056445
:1046A000038470BD0021018041808180816081810F
:1046B000C18101824182704770B503460020002409
:1046C0001846183001258D40ACB21D8CA5431D84C1
:1046D00009B108290AD100EB610005684FF68F7611
:1046E000354005600568154305600FE00D1FC5F3F3
:1046F0004E052844056848F6FF7635400560056894
:104700004FF6FF7606EA02263543056070BD416329
:10471000704781637047C1637047016470470A4600
:104720000021018B4FF68F731940114301837047AD
:104730000A460021018B48F6FF7319404FF6FF73BC
:1047400003EA02231943018370470A460021818B43
:104750004FF68F7319401143818370470A46002139
:10476000818B48F6FF7319404FF6FF7303EA02236B
:104770001943818370470A460021018B4FF6F77376
:1047800019401143018370470A460021018B4FF203
:10479000FF7319404FF6FF7303EA022319430183A5
:1047A00070470A460021818B4FF6F7731940114379
:1047B000818370470A460021818B4FF2FF731940B5
:1047C0004FF6FF7303EA02231943818370470A46B9
:1047D0000021018B4FF6FB73194011430183704791
:1047E0000A460021018B4FF6FF3319404FF6FF7345
:1047F00003EA02231943018370470A460021818B93
:104800004FF6FB7319401143818370470A4600211C
:10481000818B4FF6FF3319404FF6FF7303EA0223F3
:104820001943818370470A460021018B4FF67F733D
:1048300019401143018370470A460021018BC1F3DF
:104840000E014FF6FF7303EA0223194301837047F9
:104850000A460021818B4FF67F73194011438183F3
:1048600070470A460021818BC1F30E014FF6FF739A
:1048700003EA02231943818370470A460021018C11
:104880004FF6FD7319401143018470470A46002119
:10489000018C4FF6F77319401143018470470A46A3
:1048A0000021018C4FF6DF7319404FF6FF7303EAC6
:1048B00002131943018470470A460021018C4FF608
:1048C0007F7319404FF6FF7303EA02131943018403
:1048D00070470A460021018C4FF6FF5319404FF6EE
:1048E000FF7303EA02231943018470470A4600213B
:1048F000018C4FF2FF7319404FF6FF7303EA022356
:104900001943018470470A460021018C4DF6FF735C
:1049100019404FF6FF7303EA0233194301847047CD
:1049200030B5002301248C40A3B2048C9C43048442
:10493000048C02FA01F5ADB22C43048430BD30B5CD
:10494000002304248C40A3B2048C9C430484048C74
:1049500002FA01F5ADB22C43048430BD828B4FF2D4
:10496000FF331A408283828B4FF6FF7303EA0123E1
:104970001A4382837047F0B50C4615460021002289
:104980000026078C4EF6FF7C07EA0C070784818B14
:10499000028C4FF6FF7707EA043640F6FF473940AE
:1049A0004FF6FF7707EA052739434FF6FF7707EA07
:1049B0000337394345F6FF773A4046F480573A4388
:1049C00081830284F0BD828B4FF6F3731A40828399
:1049D000828B0A4382837047F0B50C46154600214E
:1049E00000220026078C4FF6FF6C07EA0C070784AD
:1049F000818B028C4FF6FF7707EA04264FF60C777F
:104A000039404FF6FF7707EA03172F4339434FF238
:104A1000FF573A4046F480773A4381830284F0BDE1
:104A2000028B4FF2FF331A400283028B4FF6FF7363
:104A300003EA01231A4302837047F0B50C4615467A
:104A4000002100220026078C4FF6EF7C07EA0C07B6
:104A50000784018B028C4FF6FF7707EA041640F6B5
:104A6000FF4739404FF6FF7707EA033739434FF6E0
:104A7000FF7703E0000001400004014007EA05273A
:104A800039434FF65F773A4046F010073A430183C7
:104A90000284F0BD028B4FF6F3731A400283028B3F
:104AA0000A4302837047F0B50C46154600210022E8
:104AB000068C4FF6FE773E400684018B028C4FF643
:104AC0000C7631407E1C06EA03162E4331434FF626
:104AD000F576324044F00106324301830284F0BD92
:104AE00070B505460C46208850B92389A288618894
:104AF0002846FFF7D8FFE1882846FFF7CBFF25E0DF
:104B0000208804280AD12389A28861882846FFF7D3
:104B100094FFE1882846FFF783FF17E020880828E4
:104B20000AD12389A28861882846FFF755FFE188CA
:104B30002846FFF748FF09E02389A28861882846B4
:104B4000FFF719FFE1882846FFF708FF70BD002135
:104B500001804180012181800021C1800181704755
:104B60002DE9F04105460C4600260127608808B96A
:104B7000022600E00026A088012801D1022700E0DB
:104B800001272088A0B92389A28861882846FFF7D9
:104B90008AFFE1882846FFF77DFF23893A463146A0
:104BA0002846FFF74AFFE1882846FFF739FF13E060
:104BB0002389A28861882846FFF73FFFE1882846BD
:104BC000FFF72EFF23893A4631462846FFF76BFF51
:104BD000E1882846FFF75EFFBDE8F0810146486B9B
:104BE00070470146886B70470146C86B70470146A5
:104BF000086C70470A884B881A438B881A43CB8805
:104C00001A430B891A434B891A438B891A43A0F81C
:104C1000442070470021018041808180C180018152
:104C200041818181704731B1B0F8442042F40042A3
:104C3000A0F8442005E0B0F84420C2F30E02A0F82A
:104C40004420704721B1828842F00402828004E04F
:104C500082884FF6FB731A408280704721B18288A8
:104C600042F00102828004E082884FF6FE731A400F
:104C7000828070471AB183890B43838102E0838964
:104C80008B43838170478182704702460020138ADC
:104C90000B400BB1012000E000207047CA430282A4
:104CA000704730B50246002000230024158A05EA2B
:104CB0000103958905EA010413B10CB1012000E05C
:104CC000002030BDCA430282704741EA0203A0F8C7
:104CD000483070471AB183890B43838102E083898E
:104CE0008B438381704721B1828842F00802828021
:104CF00004E082884FF6F7731A408280704701897A
:104D00004FF6F8721140018170470A46002101896F
:104D10004FF68F73194011430181704730B5044637
:104D20000D4629462046FFF7F0FF208940F0070096
:104D3000208130BD2DE9F04104460D4616461F4640
:104D4000602D06D13B46012231462046FFF775FE15
:104D500005E03B46012231462046FFF7A4FE2946E6
:104D60002046FFF7D2FF208940F007002081BDE8F0
:104D7000F08130B50C4600210189C9B24FF6FF75AC
:104D800005EA0325154325432943018130BD2DE95B
:104D9000F04105460E4617469846002443463A46DB
:104DA00031462846FFF7E5FF2C894FF6F87004409E
:104DB00044F007044FF68F70044044F070042C81D7
:104DC000BDE8F081F0B504460D4616461F463B4649
:104DD000324629462046FFF7CCFF208940F4804028
:104DE0002081F0BD82884FF68F731A4082808288BE
:104DF0000A438280704702894FF6F8731A40028195
:104E000002890A430281704702894FF67F731A4074
:104E1000028102890A4302817047F0B50C461546AB
:104E20001E460021002200230189028B038C4FF6CD
:104E3000F877394021434FF6FC473A4040F20117DA
:104E40003A434FF6DD773B404FF6FF7707EA061708
:104E50002F433B43018102830384F0BD21B182884B
:104E600042F08002828004E082884FF67F731A400D
:104E700082807047A0F8501070470000FA48006820
:104E800040F00100F84908600020F7490831086047
:104E9000F5480068F5490840F3490860F448091DE1
:104EA0000860081F006820F48020091F08600020A7
:104EB000ED490C31086070470021EB4A921C1170DB
:104EC00011460870704710B50146002200230020EB
:104ED0004A11012A02D1E44C236808E0022A03D1D6
:104EE000E14C7034236802E0DF4C7434236801F035
:104EF0001F02012494401C400CB1012000E000205E
:104F000010BD38B5002000900024002500BF3120DE
:104F1000FFF7D9FF05460098401C00900098B0F5B7
:104F2000A06F01D0002DF2D03120FFF7CCFF08B1E7
:104F3000012400E00024204638BD01460020CA4A72
:104F4000106820F0F80040EAC10010607047C949BD
:104F5000086070470021C44A703211701170012836
:104F600002D004280AD104E00121BF4A7032117036
:104F700005E00521BC4A7032117000E000BF00BF9F
:104F80007047BD490860704770B5049C41EA8215BE
:104F90000126C6EB530645EA0645054345EA046586
:104FA000B14E361D356070BDB2490866704782014A
:104FB00042EA0172AC4B84331A607047AD4988668F
:104FC0007047AC49C864704702460020A64B0833BE
:104FD000186820F0EC6042EA01031843A24B083342
:104FE00018607047024600209F4B0833186820F075
:104FF000784042EA010318439B4B0833186070471E
:1050000001460020984A0832106820F00300084347
:105010001060704794480830006800F00C0070473A
:1050200001460020904A0832106820F0F000084342
:1050300010607047014600208B4A0832106820F447
:10504000E05008431060704701460020864A08324D
:10505000106820F4604040EAC10010607047F0B56D
:105060000021002200240225002602237E4F08375B
:105070003F6807F00C0121B1042905D0082937D178
:1050800005E07E4F076036E07D4F076033E0764FE6
:105090003F1D3F68C7F38056734F3F1D3F6807F0C1
:1050A0003F036EB1764FB7FBF3F7DFF8BCC10CF1ED
:1050B000040CDCF800C0CCF3881C07FB0CF40CE0FB
:1050C0006E4FB7FBF3F7DFF8A0C10CF1040CDCF86E
:1050D00000C0CCF3881C07FB0CF4634F3F1D3F68F6
:1050E000C7F301477F1C7D00B4FBF5F7076002E0C2
:1050F000624F076000BF00BF5B4F08373F6807F093
:10510000F00109095F4F7A5C0768D7404760564F46
:1051100008373F6807F4E051890A5A4F7A5C4768BC
:10512000D7408760504F08373F6807F46041490B0C
:10513000544F7A5C4768D740C760F0BD002100F447
:105140004072B2F5407F0AD1474A0832116821F413
:10515000F8114D4A02401143434A08321160424A55
:1051600070321268C0F30B031A433F4B70331A605E
:10517000704741494439086070473F4940390860E9
:10518000704742490860704739B1374A3032126877
:105190000243354B30331A6006E0334A303212682E
:1051A0008243314B30331A60704739B12E4A343262
:1051B000126802432C4B34331A6006E02A4A343218
:1051C00012688243284B34331A60704739B1264A3B
:1051D000383212680243244B38331A6006E0224A00
:1051E000383212688243204B38331A60704739B125
:1051F0001D4A4032126802431B4B40331A6006E0DE
:10520000194A403212688243174B40331A60704784
:1052100039B1154A443212680243134B44331A60C1
:1052200006E0114A4432126882430F4B44331A603D
:10523000704739B10C4A1032126802430A4B1033DE
:105240001A6006E0084A103212688243064B103397
:105250001A607047E1B1044A143212680243024BEB
:1052600014331A6019E0000000380240FFFFF6FE18
:105270001030002400004742800E47420024F40012
:1052800040787D01BE000020FFFCFF0F5C0147421B
:105290005B4A126882435A4B1A60704739B1584AC8
:1052A000121D12680243564B1B1D1A6006E0544A39
:1052B000121D12688243524B1B1D1A60704739B190
:1052C0004F4A0C32126802434D4B0C331A6006E011
:1052D0004B4A0C3212688243494B0C331A607047B8
:1052E00039B1474A103212680243454B10331A60F5
:1052F00006E0434A103212688243414B10331A6071
:10530000704739B13E4A3C32126802433C4B3C3351
:105310001A6006E03A4A3C3212688243384B3C330A
:105320001A60704739B1364A403212680243344B32
:1053300040331A6006E0324A403212688243304BF2
:1053400040331A60704739B12D4A44321268024323
:105350002B4B44331A6006E0294A443212688243D8
:10536000274B44331A60704739B1254A4C321268D2
:105370000243234B4C331A6006E0214A4C32126838
:1053800082431F4B4C331A60704739B11C4A50326C
:10539000126802431A4B50331A6006E0184A503222
:1053A00012688243164B50331A60704739B1144A61
:1053B000D21F12780243124BDB1F1A7006E0104A0C
:1053C000D21F127882430E4BDB1F1A7070470C48B5
:1053D0006030006840F080700949603108607047B3
:1053E00001460020064A083A12680A400AB1012024
:1053F00000E0002070470249891F087070470000D4
:105400001438024010B50446FE48844209D10121F7
:105410004806FFF754FF00214FF00070FFF74FFFE1
:1054200008E001218806FFF74AFF00214FF0806065
:10543000FFF745FF10BD30B5024600200023146879
:1054400024F002041460146844F00104146000E0C5
:105450005B1C546804F001041CB94FF6FF74A342AE
:10546000F6D1546804F001040CB900206CE08C798A
:10547000012C04D1146844F08004146003E0146823
:1054800024F080041460CC79012C04D1146844F019
:105490004004146003E0146824F0400414600C7AA3
:1054A000012C04D1146844F02004146003E0146853
:1054B00024F0200414604C7A012C04D1146844F0C8
:1054C0001004146003E0146824F0100414608C7A53
:1054D000012C04D1146844F00804146003E014683B
:1054E00024F008041460CC7A012C04D1146844F030
:1054F0000404146003E0146824F0040414608C783D
:10550000A407CD7844EA05640D7944EA05444D7951
:1055100044EA05540D886D1E2C43D461146824F0B0
:1055200001041460002300E05B1C546804F00104D3
:105530001CB14FF6FF74A342F6D1546804F0010485
:105540000CB1002000E0012030BD10B50021837AAD
:10555000012202FA03F1AC4A126842F00102AA4B9E
:105560001A60A94A1C3212688A43A74B1C331A607E
:10557000027BCAB9A44A0C3212688A43A24B0C338C
:105580001A604288C38842EA03439F4A4032847AC1
:1055900042F834300288838842EA03439A4A403210
:1055A000847A02EBC4025360027B012A19D1964A25
:1055B0000C3212680A43944B0C331A6042880388F9
:1055C00042EA0343904A4032847A42F83430C28837
:1055D000838842EA03438C4A4032847A02EBC40255
:1055E0005360C27A3AB9884A121D12688A43864BC0
:1055F0001B1D1A6006E0844A121D12680A43824B82
:105600001B1D1A60028932B97F4A143212688A431C
:105610007D4B14331A600289012A06D17A4A14326A
:1056200012680A43784B14331A60427B012A06D170
:10563000754A1C3212680A43734B1C331A60724A53
:10564000126822F00102704B1A6010BD00218171B6
:10565000C171017241728172C1728170C170032186
:105660000171022141710121018070476649096879
:1056700041F00101644A11601146096843F60E7257
:105680009143614A11601146096841EA00211160A5
:105690001146096821F001011160704721B10268CB
:1056A00042F48032026003E0026822F48032026039
:1056B0007047E1B1026842F0800202604FF4C272AA
:1056C000125842F480734FF4C27213504FF4CA72EE
:1056D000125842F480734FF4CA7213504FF4D272CE
:1056E000125842F480734FF4D27213501BE00268D8
:1056F00022F0800202604FF4C272125822F48073CA
:105700004FF4C27213504FF4CA72125822F48073CD
:105710004FF4CA7213504FF4D272125822F48073AD
:105720004FF4D2721350704710B5024600209368B0
:1057300003F08063B3F1806F00D110E0936803F051
:105740000063B3F1006F01D1012008E0936803F01A
:105750008053B3F1805F01D1022000E004200428CF
:1057600079D002F5C07303EB00131B6803F001044A
:1057700002F5C07303EB00131C600B7A7BB94B7A04
:105780000C8843EA445302F5C07404EB0014246807
:10579000234302F5C07404EB0014236010E00B7A7D
:1057A0004C6843EAC4034C7A234302F5C07404EB0B
:1057B00000142468234302F5C07404EB0014236032
:1057C0008B7A03F00F038B7202F5C07303EB0013A7
:1057D0005B6823F00F0402F5C07303EB00135C60F9
:1057E00002F5C07303EB00135B688C7A234302F568
:1057F000C07404EB001463608B7B1C064B7B44EA93
:10580000034403E000640040006600400B7B44EA70
:105810000323CC7A234302F5C07404EB0014A36085
:105820008B7C1C064B7C44EA03440B7C44EA032338
:10583000CC7B234302F5C07404EB0014E36002F553
:10584000C07303EB00131B6843F0010402F5C0733F
:1058500003EB00131C6010BD10B50246002321B1FC
:10586000012907D002290FD109E09068F94C00EA1C
:1058700004030BE09068F84C00EA040306E090682B
:10588000F64C00EA040301E0002300BF00BFF44C23
:10589000181BA34216D007DC83B16FF08060184458
:1058A00070B1022818D111E0B0F5007F10D0ED4C96
:1058B000204448B1B0F5003F0ED10BE002230DE0CB
:1058C00000230BE0002309E0002307E0012305E0AB
:1058D000012303E0012301E0002300BF00BFD8B291
:1058E00010BD21B1012907D002290FD109E082683A
:1058F00042F0800282600AE0826842F400428260E4
:1059000005E0826842F40002826000E000BF00BF50
:10591000704710B500F5D87303EB01131B6803F053
:1059200004031372137A53B900F5D87303EB011310
:105930001B6840F2FF7404EA5353136009E000F55A
:10594000D87303EB01131B686FF0604404EAD303C0
:10595000536000F5D87303EB01131B6803F00203D7
:10596000537200F5D87303EB01135B6803F00F0368
:10597000937200F5D87303EB01135B681B0AD374B1
:1059800000F5D87303EB01139B68D37200F5D8734D
:1059900003EB01139B681C0A147300F5D87303EB27
:1059A00001139B681C0C547300F5D87303EB0113AF
:1059B0009B681B0E937300F5D87303EB0113DB6830
:1059C000D37300F5D87303EB0113DB681C0A14745E
:1059D00000F5D87303EB0113DB681C0C547400F55D
:1059E000D87303EB0113DB681B0E937421B9C368F2
:1059F00043F02003C36003E0036943F02003036125
:105A000010BD21B9C26842F02002C26003E0026901
:105A100042F02002026170470246002019B9D368A3
:105A200003F0030006E0012903D1136903F003002A
:105A300000E00020704710B502460B4600204FF6EC
:105A4000FF71BBB9146824F0020444F0010414602F
:105A500000E0491E546804F00304012C01D0002921
:105A6000F7D1546804F00304012C01D0002032E087
:105A7000012030E0012B13D1146824F003041460DA
:105A800000E0491E546804F003040CB10029F8D169
:105A9000546804F003040CB100201CE001201AE05B
:105AA000022B17D1146824F0010444F0020414609E
:105AB00000E0491E546804F00304022C01D00029C0
:105AC000F7D1546804F00304022C01D0002002E056
:105AD000012000E0002010BD014600200A6822F0ED
